:020000040800F2
:100000004808002015040008710400087104000865
:100010007104000871040008710400080000000069
:100020000000000000000000000000007104000853
:100030007104000800000000710400087104000849
:1000400071040008710400087104000871040008BC
:100050007104000871040008710D000871040008A3
:10006000710400087104000871040008710400089C
:10007000710400087104000871040008710400088C
:10008000710400087104000871040008710400087C
:10009000710400087104000871040008710400086C
:1000A000710400087104000871040008710400085C
:1000B0008D0D000871040008710400087104000827
:1000C000710400087104000871040008710400083C
:1000D000710400087104000871040008710400082C
:1000E000710400087104000871040008710400081C
:1000F000710400087104000871040008710400080C
:1001000071040008710400087104000871040008FB
:1001100071040008710400087104000871040008EB
:1001200071040008710400087104000871040008DB
:1001300071040008710400087104000871040008CB
:1001400071040008710400087104000871040008BB
:1001500071040008710400087104000871040008AB
:10016000710400087104000871040008710400089B
:10017000710400087104000871040008710400088B
:10018000710400087104000890B484B000AF024606
:100190000B46FA71BB710023FB60BB7903F00303CC
:1001A0009B000F2202FA03F3FB60154BBA79920809
:1001B000D2B21349B8798008C0B2023051F8200099
:1001C000F968C9430140023243F822100C4BBA7956
:1001D0009208D2B20A49B8798008C0B2023051F808
:1001E0002000FC79B97901F00301890004FA01F1DA
:1001F0000143023243F822101037BD4690BC7047CD
:100200000038014080B58AB000AF786039600023C3
:100210007B6200233B620023FB610023BB617B68A0
:100220001B8A9BB27B627B6A23F440537B623B68F0
:10023000DB887A6A13437B627B6A9AB27B681A8294
:100240007B689B899BB27B627B6A23F4B05323F06B
:100250000C037B623B689A883B681B8913439AB204
:100260003B685B8913439BB27A6A13437B627B6A68
:100270009AB27B689A817B689B8A9BB27B627B6A1D
:1002800023F440737B623B689B897A6A13437B62E9
:100290007B6A9AB27B689A8207F10803184600F0DD
:1002A0001BF97A68314B9A4203D07A68304B9A42F4
:1002B00002D17B693B6201E03B693B627B689B89C1
:1002C0009BB29BB21BB2002B0CDA3A6A13469B001E
:1002D00013449A001A443B681B685B00B2FBF3F3BB
:1002E000FB610BE03A6A13469B0013449A001A44E0
:1002F0003B681B689B00B2FBF3F3FB61FA691D4B83
:10030000A3FB02135B091B017B627B6A1B0964224E
:1003100002FB03F3FA69D31ABB617B689B899BB22A
:100320009BB21BB2002B0DDABB69DB0003F132027A
:10033000104BA3FB02135B0903F007037A6A134314
:100340007B620CE0BB691B0103F13202094BA3FB8A
:1003500002135B0903F00F037A6A13437B627B6A23
:100360009AB27B681A812837BD4680BD00100140D3
:10037000001401401F85EB5180B483B000AF78605A
:100380000B46FB70FB78002B08D07B689B899BB2E7
:1003900043F400539AB27B689A8107E07B689B899B
:1003A0009BB223F400539AB27B689A810C37BD4606
:1003B0005DF8047B704700BF80B483B000AF786005
:1003C0000B467B807B88C3F308039AB27B689A80D4
:1003D0000C37BD465DF8047B704700BF80B485B024
:1003E00000AF78600B467B800023FB737B681B8823
:1003F0009AB27B8813409BB2002B02D00123FB737F
:1004000001E00023FB73FB7B18461437BD465DF803
:10041000047B704780B582B000AF104B7B60104BFF
:100420003B6007E03B681A1D3A607A68111D7960ED
:1004300012681A603A680B4B9A42F3D30A480B4988
:100440004FF000028842B8BF40F8042BFFF6FAAF25
:1004500000F012F80837BD4680BD00BF141C00082C
:100460000000002040000020400000204400002048
:1004700080B400AFFEE700BF80B582B000AF00F0EF
:10048000A3FC00F049FC03467B8000237B6007E06F
:100490007B68DBB2184600F0F5FB7B6801337B60BC
:1004A0007A887B689A42F3DC7B887B6007E07B6814
:1004B000DBB2184600F0FEFB7B6801337B607B6893
:1004C000072BF4DD412000F00DFCDAE780B400AF2B
:1004D000BD465DF8047B704780B489B000AF78609A
:1004E0000023BB6100237B610023FB6102233B618E
:1004F0000023FB600223BB60484B9B6803F00C03A6
:10050000BB61BB69042B07D0082B09D0002B3FD15E
:100510007B68434A1A603FE07B68424A1A603BE0CE
:100520003E4B5B6803F480039B0DFB603B4B5B68B9
:1005300003F03F03BB60FB68002B0DD0394ABB685A
:10054000B2FBF3F2354B596847F6C0730B409B0979
:1005500003FB02F3FB610CE0314ABB68B2FBF3F230
:100560002E4B596847F6C0730B409B0903FB02F3FF
:10057000FB612A4B5B6803F440331B0C01335B00C7
:100580003B61FA693B69B2FBF3F27B681A6003E0F6
:100590007B68234A1A6000BF204B9B6803F0F0037E
:1005A000BB61BB691B09BB611F4ABB6913441B7854
:1005B000DBB27B617B681A687B69DA407B685A60D2
:1005C000164B9B6803F4E053BB61BB699B0ABB619C
:1005D000154ABB6913441B78DBB27B617B685A68A0
:1005E0007B69DA407B689A600C4B9B6803F460433C
:1005F000BB61BB695B0BBB610B4ABB6913441B78D6
:10060000DBB27B617B685A687B69DA407B68DA60C1
:100610002437BD465DF8047B704700BF00380240B8
:100620000024F40040787D010000002080B483B0F5
:1006300000AF78600B46FB70FB78002B06D0094BAF
:10064000084A116B7A680A431A6306E0054B054AAB
:10065000116B7A68D2430A401A630C37BD465DF8C5
:10066000047B70470038024080B483B000AF7860EC
:100670000B46FB70FB78002B06D0094B084A116C27
:100680007A680A431A6406E0054B054A116C7A68D9
:10069000D2430A401A640C37BD465DF8047B7047AC
:1006A0000038024080B483B000AF78600B46FB7026
:1006B000FB78002B06D0094B084A516C7A680A4334
:1006C0005A6406E0054B054A516C7A68D2430A40E9
:1006D0005A640C37BD465DF8047B70470038024011
:1006E00080B485B000AF786039600023FB600023E0
:1006F000FB727B685B68FB60FB6823F0407323F44C
:100700008073FB603B681B791A023B681B681343CC
:10071000FA681343FB607B68FA685A607B689B68E1
:10072000FB60FA68174B1340FB603B681A693B6833
:10073000DB681A433B689B681A433B685B795B0044
:100740001343FA681343FB607B68FA689A607B681E
:10075000DB6AFB60FB6823F47003FB603B681B7D76
:10076000013BDAB2FB7A1343FB72FB7A1B05FA6892
:100770001343FB607B68FA68DA621437BD465DF8A4
:10078000047B7047FDF7FFC080B483B000AF786092
:100790007B6800221A607B6800221A717B68002245
:1007A0005A717B6800229A607B680022DA607B685D
:1007B00000221A617B6801221A750C37BD465DF86C
:1007C000047B704780B485B000AF78600023FB6085
:1007D0000E4B5B68FB60FA680D4B1340FB607B6857
:1007E0001A687B685B681A437B689B681A437B685E
:1007F000DB681343FA681343FB60044BFA685A60E2
:100800001437BD465DF8047B704700BF00230140EC
:10081000E030FCFF80B483B000AF78607B680022DA
:100820001A607B6800225A607B6800229A607B68AD
:100830000022DA600C37BD465DF8047B704700BFCC
:1008400080B483B000AF78600B46FB70FB78002B60
:1008500006D07B689B6843F001027B689A6005E0E4
:100860007B689B6823F001027B689A600C37BD4669
:100870005DF8047B704700BF80B485B000AF78603E
:10088000F970BA707B700023FB600023BB60FB78BB
:10089000092B23D97B68DB68FB60FB78A3F10A0294
:1008A00013465B001344072202FA03F3BB60BB68E4
:1008B000DB43FA681340FB607978FB78A3F10A0206
:1008C00013465B00134401FA03F3BB60FA68BB688C
:1008D0001343FB607B68FA68DA601EE07B681B6983
:1008E000FB60FA7813465B001344072202FA03F315
:1008F000BB60BB68DB43FA681340FB607978FA7829
:1009000013465B00134401FA03F3BB60FA68BB684B
:100910001343FB607B68FA681A61BB78062B21D809
:100920007B685B6BFB60BB785A1E13469B001344CD
:100930001F2202FA03F3BB60BB68DB43FA68134073
:10094000FB60F978BB785A1E13469B00134401FAEA
:1009500003F3BB60FA68BB681343FB607B68FA680B
:100960005A6347E0BB780C2B21D87B681B6BFB607C
:10097000BB78DA1F13469B0013441F2202FA03F3CD
:10098000BB60BB68DB43FA681340FB60F978BB7857
:10099000DA1F13469B00134401FA03F3BB60FA68A5
:1009A000BB681343FB607B68FA681A6322E07B68CC
:1009B000DB6AFB60BB78A3F10D0213469B00134476
:1009C0001F2202FA03F3BB60BB68DB43FA681340E3
:1009D000FB60F978BB78A3F10D0213469B0013442A
:1009E00001FA03F3BB60FA68BB681343FB607B68E2
:1009F000FA68DA621437BD465DF8047B704700BFC1
:100A000080B483B000AF78607B689B6843F080421D
:100A10007B689A600C37BD465DF8047B704700BF69
:100A200080B483B000AF78607B68DB6C9BB2184603
:100A30000C37BD465DF8047B704700BF80B485B0BD
:100A400000AF78600B46FB700023FB737B681A686D
:100A5000FB781340002B02D00123FB7301E000233D
:100A6000FB73FB7B18461437BD465DF8047B70476B
:100A700080B487B000AF7860396000237B610023C9
:100A80003B610023FB6000237B6176E07B690122F0
:100A900002FA03F33B613B681A683B691340FB6051
:100AA000FA683B699A4265D17B681A687B695B008A
:100AB000032101FA03F3DB431A407B681A607B6869
:100AC0001A683B681B7919467B695B0001FA03F3DE
:100AD0001A437B681A603B681B79012B03D03B6883
:100AE0001B79022B2ED17B689A687B695B000321FE
:100AF00001FA03F3DB431A407B689A607B689A68CB
:100B00003B685B7919467B695B0001FA03F31A4382
:100B10007B689A607B685A687B699BB2012101FA05
:100B200003F3DB431A407B685A607B685A683B6872
:100B30009B7919467B699BB201FA03F39BB21A4376
:100B40007B685A607B68DA687B699BB25B00032133
:100B500001FA03F3DB431A407B68DA607B68DA68EA
:100B60003B68DB7919467B695B0001FA03F31A43A2
:100B70007B68DA607B6901337B617B690F2B85D9E8
:100B80001C37BD465DF8047B704700BF80B483B05E
:100B900000AF78607B684FF6FF721A607B680022B6
:100BA0001A717B6800225A717B6800229A717B68F7
:100BB0000022DA710C37BD465DF8047B704700BF38
:100BC00080B483B000AF78600B467B807B687A8806
:100BD0001A830C37BD465DF8047B704780B483B040
:100BE00000AF78600B467B807B687A885A830C372D
:100BF000BD465DF8047B704780B485B000AF786077
:100C000013460A467A807B700023FB600023BB609A
:100C10007A787B8803F007039B0002FA03F3FB60FA
:100C20007B88DB089BB21A467B88DB089BB219469F
:100C30007B68083153F821107B8803F007039B0081
:100C40000F2000FA03F3DB4319407B68083243F8B6
:100C500022107B88DB089BB21A467B68083253F867
:100C60002220FB681343BB607B88DB089BB21A46DB
:100C70007B680832B96843F822101437BD465DF826
:100C8000047B704780B582B000AF0346FB71FA79F0
:100C9000064B53F82220F979054B33F811301046F2
:100CA0001946FFF78DFF0837BD4680BD10000020B4
:100CB000FC1B000880B582B000AF0346FB71FA79D7
:100CC000064B53F82220F979054B33F811301046C2
:100CD0001946FFF783FF0837BD4680BD100000208E
:100CE000FC1B000880B582B000AF0346FB710848CA
:100CF0008021FFF773FB0346002B05D0FB799BB2E5
:100D000003481946FFF758FB0837BD4680BD00BFB2
:100D1000004800400000000080B500AF00F034F94A
:100D20000346184600F0D2FC02460B461046194610
:100D30004FF000020C4B00F02FFD02460B46104610
:100D4000194607A3D3E9002300F050FE02460B46E4
:100D50001046194600F032FF03469BB2184680BD8C
:100D60000000000000FEAF4000002140AFF3008013
:100D700080B500AF012000F0EDF90346002B04D050
:100D8000012000F0D9F9FFF7A1FB80BD80B500AFCD
:100D90004FF08040012100F00DFB0346002B10D0E6
:100DA0004FF08040012100F02FFB064B1B889BB2C7
:100DB000002B06D0034B1B889BB2013B9AB2014B20
:100DC0001A8080BD4000002080B500AF00F00AF816
:100DD00000F028F800F060F800F08EF800F0F0F86D
:100DE00080BD00BF80B582B000AF08200121FFF7B1
:100DF0001DFCCF233B603B6843F47C433B600123F5
:100E00003B7102237B710023BB710023FB713B46C6
:100E100003481946FFF72CFE0837BD4680BD00BFCA
:100E2000000C024080B586B000AF01200121FFF721
:100E3000FDFB01233B6100233B7502237B750023EF
:100E4000BB750223FB7507F1100312481946FFF723
:100E50000FFE00200021FFF797F901237B6000239C
:100E60003B7210237B720123BB723B1D184600F0BE
:100E7000F5F806233B7301237B730123BB73012326
:100E8000FB7307F10C03184600F088F91837BD46CC
:100E900080BD00BF0000024080B584B000AF1C23BD
:100EA0003B7000237B700123BB700123FB703B462A
:100EB000184600F073F901200121FFF7D5FB4FF42C
:100EC0007A73BB600F23BB800023BB810023FB80B0
:100ED0003B1D4FF08040194600F0BEF94FF08040B6
:100EE0000121012200F042FA4FF08040012100F080
:100EF0001DFA1037BD4680BD80B58CB000AF4FF4F1
:100F000080700121FFF7CEFB04200121FFF78EFB4B
:100F100007F128031846FFF739FE0423BB620323B9
:100F200087F82C3007F1280315481946FFF7A0FD74
:100F300007F118031846FFF76DFC4FF48033FB618F
:100F400007F118031846FFF73DFC3B461846FFF72C
:100F50001BFC00233B603B460A481946FFF7C0FBD9
:100F600008480121FFF76CFC3B4606481946FFF78D
:100F7000B7FB04480121FFF763FC3037BD4680BD55
:100F8000000802400020014080B500AF0B480C2152
:100F900001220123FFF770FC0848FFF731FD00BF75
:100FA00006480221FFF74AFD0346012BF8D103480A
:100FB000FFF736FD0346184680BD00BF0020014004
:100FC00080B586B000AF08200121FFF72FFB4FF45A
:100FD00080200121FFF748FB0023BB710123FB7137
:100FE00002233B714FF480733B6002237B713B46CD
:100FF00018481946FFF73CFD164808210722FFF75D
:10100000FBFD02233B714FF400733B603B461148EC
:101010001946FFF72DFD0F4809210722FFF7ECFDC8
:101020004FF4E133BB600023BB810023FB8100232D
:101030003B820023BB820C237B8207F10803064816
:101040001946FFF7DFF804480121FFF795F9183733
:10105000BD4680BD000C02400048004080B485B011
:1010600000AF78600023FB60324BFB607B689B79AC
:10107000002B4DD02F4B2F4A11687A681268D2434B
:101080000A401A602B4B2B4A51687A681268D24387
:101090000A405A607B681B79FA681344FB60FB685E
:1010A000FA6811687A6812680A431A60214B214A6B
:1010B00091687A681268D2430A409A601D4B1D4AB3
:1010C000D1687A681268D2430A40DA607B685B793B
:1010D000102B0ED1174B174A91687A6812680A4391
:1010E0009A60144B134AD1687A6812680A43DA602E
:1010F0001BE0104BFB607B685B79FA681344FB6074
:10110000FB68FA6811687A6812680A431A600CE092
:101110007B681B79FA681344FB60FB68FA68116806
:101120007A681268D2430A401A601437BD465DF8E7
:10113000047B7047003C014080B483B000AF78600E
:10114000034B7A685A610C37BD465DF8047B7047E3
:10115000003C014080B485B000AF78600023FB7391
:101160000023BB600C4B1A687B681340BB600A4BC2
:101170005A697B681340002B05D0BB68002B02D056
:101180000123FB7301E00023FB73FB7B184614373C
:10119000BD465DF8047B7047003C014080B485B0DB
:1011A00000AF78600023FB730023BB730F237B73B6
:1011B0007B68DB78002B37D0254BDB68DB4303F4FF
:1011C000E0631B0AFB73FB7BC3F10403BB737A7BF5
:1011D000FB7B42FA03F37B737B685B781A46BB7B2D
:1011E00002FA03F3FB737B689A787B7B1340DAB2D5
:1011F000FB7B1343FB73FB7B1B01FB73154A7B6873
:101200001B781344FA7B83F80023124B7A68127818
:101210005209D2B27968097801F01F01012000FA61
:1012200001F143F822100EE00A4B7A681278520955
:10123000D2B27968097801F01F01012000FA01F1AA
:10124000203243F822101437BD465DF8047B704706
:1012500000ED00E000E100E080B485B000AF786010
:1012600039600023FB817B681B88FB817A68284BEF
:101270009A4213D07A68274B9A420FD07B68B3F119
:10128000804F0BD07A68244B9A4207D07A68234B60
:101290009A4203D07A68224B9A4208D1FB8923F004
:1012A0007003FB813B685A88FB891343FB817A6892
:1012B0001C4B9A420CD07A681B4B9A4208D0FB898F
:1012C00023F44073FB813B681A89FB891343FB813C
:1012D0007B68FA891A803B685A687B68DA623B68E7
:1012E0001A887B681A857A68094B9A4203D07A6813
:1012F000084B9A4204D13B689B7A1A467B681A864F
:101300007B6801229A821437BD465DF8047B7047E2
:1013100000000140000401400004004000080040BB
:10132000000C0040001000400014004080B483B066
:1013300000AF78600B46FB70FB78002B08D07B6811
:101340001B889BB243F001039AB27B681A8007E0C6
:101350007B681B889BB223F001039AB27B681A80DA
:101360000C37BD465DF8047B704700BF80B483B086
:1013700000AF786013460A467A807B707B78002B3A
:1013800008D07B689B899AB27B8813439AB27B68AA
:101390009A8109E07B689B899AB27B88DB439BB288
:1013A00013409AB27B689A810C37BD465DF8047B86
:1013B000704700BF80B485B000AF78600B467B807B
:1013C0000023FB730023BB8100237B817B681B8A86
:1013D0009AB27B881340BB817B689B899AB27B88D9
:1013E00013407B81BB89002B05D07B89002B02D069
:1013F0000123FB7301E00023FB73FB7B18461437CA
:10140000BD465DF8047B704780B483B000AF786060
:101410000B467B807B88DB439AB27B681A820C3751
:10142000BD465DF8047B704781F0004102E000BFDB
:1014300083F0004330B54FEA41044FEA430594EA94
:10144000050F08BF90EA020F1FBF54EA000C55EACF
:10145000020C7FEA645C7FEA655C00F0E2804FEAA0
:101460005454D4EB5555B8BF6D420CDD2C4480EA82
:10147000020281EA030382EA000083EA010180EAB2
:10148000020281EA0303362D88BF30BD11F0004F00
:101490004FEA01314FF4801C4CEA113102D0404236
:1014A00061EB410113F0004F4FEA03334CEA133371
:1014B00002D0524263EB430394EA050F00F0A78089
:1014C000A4F10104D5F1200E0DDB02FA0EFC22FA84
:1014D00005F2801841F1000103FA0EF2801843FA78
:1014E00005F359410EE0A5F120050EF1200E012A69
:1014F00003FA0EFC28BF4CF0020C43FA05F3C018A7
:1015000051EBE37101F0004507D54FF0000EDCF11F
:10151000000C7EEB00006EEB0101B1F5801F1BD3C8
:10152000B1F5001F0CD349085FEA30004FEA3C0CCC
:1015300004F101044FEA445212F5800F80F09A80C2
:10154000BCF1004F08BF5FEA500C50F1000041EBC6
:10155000045141EA050130BD5FEA4C0C404141EBCA
:10156000010111F4801FA4F10104E9D191F0000FF1
:1015700004BF01460020B1FA81F308BF2033A3F174
:101580000B03B3F120020CDA0C3208DD02F1140C6B
:10159000C2F10C0201FA0CF021FA02F10CE002F1A6
:1015A0001402D8BFC2F1200C01FA02F120FA0CFC9F
:1015B000DCBF41EA0C019040E41AA2BF01EB0451E8
:1015C000294330BD6FEA04041F3C1CDA0C340EDCE6
:1015D00004F11404C4F1200220FA04F001FA02F329
:1015E00040EA030021FA04F345EA030130BDC4F1E7
:1015F0000C04C4F1200220FA02F001FA04F340EADC
:101600000300294630BD21FA04F0294630BD94F08C
:10161000000F83F4801306BF81F480110134013D73
:101620004EE77FEA645C18BF7FEA655C29D094EAE4
:10163000050F08BF90EA020F05D054EA000C04BF62
:101640001946104630BD91EA030F1EBF002100204D
:1016500030BD5FEA545C05D14000494128BF41F0EC
:10166000004130BD14F580043CBF01F5801130BD50
:1016700001F0004545F0FE4141F470014FF00000DB
:1016800030BD7FEA645C1ABF194610467FEA655C8C
:101690001CBF0B46024650EA013406BF52EA03352E
:1016A00091EA030F41F4002130BD00BF90F0000F1C
:1016B00004BF0021704730B54FF4806404F1320458
:1016C0004FF000054FF0000150E700BF90F0000F11
:1016D00004BF0021704730B54FF4806404F1320438
:1016E00010F0004548BF40424FF000013EE700BF08
:1016F00042004FEAE2014FEA31014FEA02701FBF98
:1017000012F07F4393F07F4F81F06051704792F069
:10171000000F14BF93F07F4F704730B54FF46074E3
:1017200001F0004521F0004120E700BF50EA01022E
:1017300008BF704730B54FF000050AE050EA0102DB
:1017400008BF704730B511F0004502D5404261EB4B
:1017500041014FF4806404F132045FEA915C3FF48C
:10176000DCAE4FF003025FEADC0C18BF03325FEA25
:10177000DC0C18BF033202EBDC02C2F1200300FADA
:1017800003FC20FA02F001FA03FE40EA0E0021FAFF
:1017900002F11444C1E600BF70B54FF0FF0C4CF4E9
:1017A000E06C1CEA11541DBF1CEA135594EA0C0F9F
:1017B00095EA0C0F00F0DEF82C4481EA030621EADA
:1017C0004C5123EA4C5350EA013518BF52EA033515
:1017D00041F4801143F4801338D0A0FB02CE4FF0C7
:1017E0000005E1FB02E506F00042E0FB03E54FF0F7
:1017F0000006E1FB03569CF0000F18BF4EF0010EEF
:10180000A4F1FF04B6F5007F64F5407404D25FEAEA
:101810004E0E6D4146EB060642EAC62141EA55519D
:101820004FEAC52040EA5E504FEACE2EB4F1FD0CDF
:1018300088BFBCF5E06F1ED8BEF1004F08BF5FEA5D
:10184000500E50F1000041EB045170BD06F000460F
:1018500046EA010140EA020081EA0301B4EB5C04BC
:10186000C2BFD4EB0C0541EA045170BD41F48011B4
:101870004FF0000E013C00F3AB8014F1360FDEBFD9
:10188000002001F0004170BDC4F10004203C35DAB5
:101890000C341BDC04F11404C4F1200500FA05F338
:1018A00020FA04F001FA05F240EA020001F00042D9
:1018B00021F0004110EBD37021FA04F642EB06014F
:1018C0005EEA430E08BF20EAD37070BDC4F10C0479
:1018D000C4F1200500FA04F320FA05F001FA04F23D
:1018E00040EA020001F0004110EBD37041F1000129
:1018F0005EEA430E08BF20EAD37070BDC4F1200534
:1019000000FA05F24EEA020E20FA04F301FA05F29B
:1019100043EA020321FA04F001F0004121FA04F243
:1019200020EA020000EBD3705EEA430E08BF20EA13
:10193000D37070BD94F0000F0FD101F0004640004D
:1019400041EB010111F4801F08BF013CF7D041EACF
:10195000060195F0000F18BF704703F000465200D3
:1019600043EB030313F4801F08BF013DF7D043EAA4
:101970000603704794EA0C0F0CEA135518BF95EA5A
:101980000C0F0CD050EA410618BF52EA4306D1D1E1
:1019900081EA030101F000414FF0000070BD50EA00
:1019A000410606BF1046194652EA430619D094EA8A
:1019B0000C0F02D150EA013613D195EA0C0F05D174
:1019C00052EA03361CBF104619460AD181EA0301C8
:1019D00001F0004141F0FE4141F470014FF0000080
:1019E00070BD41F0FE4141F4780170BD70B54FF01B
:1019F000FF0C4CF4E06C1CEA11541DBF1CEA13559B
:101A000094EA0C0F95EA0C0F00F0A7F8A4EB05047C
:101A100081EA030E52EA03354FEA013100F0888073
:101A20004FEA03334FF0805545EA131343EA12633C
:101A30004FEA022245EA111545EA10654FEA0026F1
:101A40000EF000419D4208BF964244F1FD0404F5AA
:101A5000407402D25B084FEA3202B61A65EB030506
:101A60005B084FEA32024FF480104FF4002CB6EBC3
:101A7000020E75EB030E22BFB61A754640EA0C0043
:101A80005B084FEA3202B6EB020E75EB030E22BF83
:101A9000B61A754640EA5C005B084FEA3202B6EBC4
:101AA000020E75EB030E22BFB61A754640EA9C0083
:101AB0005B084FEA3202B6EB020E75EB030E22BF53
:101AC000B61A754640EADC0055EA060E18D04FEA11
:101AD000051545EA16754FEA06164FEAC30343EAB1
:101AE00052734FEAC2025FEA1C1CC0D111F4801F7E
:101AF0000BD141EA00014FF000004FF0004CB6E777
:101B000011F4801F04BF01430020B4F1FD0C88BF15
:101B1000BCF5E06F3FF6AFAEB5EB030C04BFB6EB20
:101B2000020C5FEA500C50F1000041EB045170BD13
:101B30000EF0004E4EEA113114EB5C04C2BFD4EB40
:101B40000C0541EA045170BD41F480114FF0000EC4
:101B5000013C90E645EA060E8DE60CEA135594EA40
:101B60000C0F08BF95EA0C0F3FF43BAF94EA0C0F43
:101B70000AD150EA01347FF434AF95EA0C0F7FF4B8
:101B800025AF104619462CE795EA0C0F06D152EA0C
:101B900003353FF4FDAE1046194622E750EA4106F0
:101BA00018BF52EA43067FF4C5AE50EA41047FF401
:101BB0000DAF52EA43057FF4EBAE12E74A0011D2B3
:101BC00012F5001211D20DD56FF47873B3EB625297
:101BD0000ED44FEAC12343F0004343EA505323FAA3
:101BE00002F070474FF00000704750EA013002D118
:101BF0004FF0FF3070474FF00000704701000200C7
:101C000004000800400080000004000800100020CC
:041C10000040008010
:101C1400000000000102030401020304060708098E
:101C2400000C0240000C0240000C0240000C024078
:101C3400000C0240000C0240000C0240000C024068
:101C4400000C0240000C0240000C0240000C024058
:0400000508000000EF
:00000001FF
